{
  "_format": "hh-sol-artifact-1",
  "contractName": "EscrowHub",
  "sourceName": "contracts/EscrowHub.sol",
  "abi": [
    {
      "inputs": [],
      "stateMutability": "nonpayable",
      "type": "constructor"
    },
    {
      "anonymous": false,
      "inputs": [
        {
          "indexed": false,
          "internalType": "address",
          "name": "previousAdmin",
          "type": "address"
        },
        {
          "indexed": false,
          "internalType": "address",
          "name": "newAdmin",
          "type": "address"
        }
      ],
      "name": "AdminChanged",
      "type": "event"
    },
    {
      "anonymous": false,
      "inputs": [
        {
          "indexed": true,
          "internalType": "address",
          "name": "beacon",
          "type": "address"
        }
      ],
      "name": "BeaconUpgraded",
      "type": "event"
    },
    {
      "anonymous": false,
      "inputs": [
        {
          "indexed": true,
          "internalType": "uint256",
          "name": "escrowId",
          "type": "uint256"
        },
        {
          "indexed": false,
          "internalType": "string",
          "name": "cid",
          "type": "string"
        },
        {
          "indexed": false,
          "internalType": "address",
          "name": "buyer",
          "type": "address"
        },
        {
          "indexed": false,
          "internalType": "address",
          "name": "seller",
          "type": "address"
        },
        {
          "indexed": true,
          "internalType": "uint256",
          "name": "amount",
          "type": "uint256"
        },
        {
          "indexed": true,
          "internalType": "uint256",
          "name": "fee",
          "type": "uint256"
        },
        {
          "indexed": false,
          "internalType": "enum EscrowHub.EscrowState",
          "name": "state",
          "type": "uint8"
        }
      ],
      "name": "EscrowCreated",
      "type": "event"
    },
    {
      "anonymous": false,
      "inputs": [
        {
          "indexed": true,
          "internalType": "uint256",
          "name": "escrowId",
          "type": "uint256"
        },
        {
          "indexed": false,
          "internalType": "string",
          "name": "cid",
          "type": "string"
        },
        {
          "indexed": false,
          "internalType": "address",
          "name": "buyer",
          "type": "address"
        },
        {
          "indexed": false,
          "internalType": "address",
          "name": "seller",
          "type": "address"
        },
        {
          "indexed": false,
          "internalType": "uint256",
          "name": "amount",
          "type": "uint256"
        },
        {
          "indexed": false,
          "internalType": "uint256",
          "name": "fee",
          "type": "uint256"
        },
        {
          "indexed": true,
          "internalType": "enum EscrowHub.EscrowState",
          "name": "state",
          "type": "uint8"
        }
      ],
      "name": "EscrowUpdated",
      "type": "event"
    },
    {
      "anonymous": false,
      "inputs": [
        {
          "indexed": false,
          "internalType": "uint8",
          "name": "version",
          "type": "uint8"
        }
      ],
      "name": "Initialized",
      "type": "event"
    },
    {
      "anonymous": false,
      "inputs": [
        {
          "indexed": true,
          "internalType": "address",
          "name": "previousOwner",
          "type": "address"
        },
        {
          "indexed": true,
          "internalType": "address",
          "name": "newOwner",
          "type": "address"
        }
      ],
      "name": "OwnershipTransferred",
      "type": "event"
    },
    {
      "anonymous": false,
      "inputs": [
        {
          "indexed": true,
          "internalType": "address",
          "name": "implementation",
          "type": "address"
        }
      ],
      "name": "Upgraded",
      "type": "event"
    },
    {
      "inputs": [
        {
          "internalType": "uint256",
          "name": "_escrowId",
          "type": "uint256"
        }
      ],
      "name": "claimAfterExpire",
      "outputs": [],
      "stateMutability": "nonpayable",
      "type": "function"
    },
    {
      "inputs": [
        {
          "internalType": "uint256",
          "name": "_escrowId",
          "type": "uint256"
        }
      ],
      "name": "deliver",
      "outputs": [],
      "stateMutability": "nonpayable",
      "type": "function"
    },
    {
      "inputs": [
        {
          "internalType": "uint256",
          "name": "escrowId",
          "type": "uint256"
        }
      ],
      "name": "fetchEscrow",
      "outputs": [
        {
          "components": [
            {
              "internalType": "uint256",
              "name": "id",
              "type": "uint256"
            },
            {
              "internalType": "string",
              "name": "cid",
              "type": "string"
            },
            {
              "internalType": "address payable",
              "name": "buyer",
              "type": "address"
            },
            {
              "internalType": "address payable",
              "name": "seller",
              "type": "address"
            },
            {
              "internalType": "uint256",
              "name": "amount",
              "type": "uint256"
            },
            {
              "internalType": "uint256",
              "name": "fee",
              "type": "uint256"
            },
            {
              "internalType": "uint256",
              "name": "createdAt",
              "type": "uint256"
            },
            {
              "internalType": "uint256",
              "name": "expireAt",
              "type": "uint256"
            },
            {
              "internalType": "uint256",
              "name": "clearAt",
              "type": "uint256"
            },
            {
              "internalType": "enum EscrowHub.EscrowState",
              "name": "state",
              "type": "uint8"
            }
          ],
          "internalType": "struct EscrowHub.Escrow",
          "name": "",
          "type": "tuple"
        }
      ],
      "stateMutability": "view",
      "type": "function"
    },
    {
      "inputs": [
        {
          "internalType": "uint256",
          "name": "cursor",
          "type": "uint256"
        },
        {
          "internalType": "uint256",
          "name": "perPageCount",
          "type": "uint256"
        }
      ],
      "name": "fetchEscrowsPaginated",
      "outputs": [
        {
          "components": [
            {
              "internalType": "uint256",
              "name": "id",
              "type": "uint256"
            },
            {
              "internalType": "string",
              "name": "cid",
              "type": "string"
            },
            {
              "internalType": "address payable",
              "name": "buyer",
              "type": "address"
            },
            {
              "internalType": "address payable",
              "name": "seller",
              "type": "address"
            },
            {
              "internalType": "uint256",
              "name": "amount",
              "type": "uint256"
            },
            {
              "internalType": "uint256",
              "name": "fee",
              "type": "uint256"
            },
            {
              "internalType": "uint256",
              "name": "createdAt",
              "type": "uint256"
            },
            {
              "internalType": "uint256",
              "name": "expireAt",
              "type": "uint256"
            },
            {
              "internalType": "uint256",
              "name": "clearAt",
              "type": "uint256"
            },
            {
              "internalType": "enum EscrowHub.EscrowState",
              "name": "state",
              "type": "uint8"
            }
          ],
          "internalType": "struct EscrowHub.Escrow[]",
          "name": "data",
          "type": "tuple[]"
        },
        {
          "internalType": "uint256",
          "name": "totalItemCount",
          "type": "uint256"
        },
        {
          "internalType": "bool",
          "name": "hasNextPage",
          "type": "bool"
        },
        {
          "internalType": "uint256",
          "name": "nextCursor",
          "type": "uint256"
        }
      ],
      "stateMutability": "view",
      "type": "function"
    },
    {
      "inputs": [],
      "name": "fetchMyEscrows",
      "outputs": [
        {
          "components": [
            {
              "internalType": "uint256",
              "name": "id",
              "type": "uint256"
            },
            {
              "internalType": "string",
              "name": "cid",
              "type": "string"
            },
            {
              "internalType": "address payable",
              "name": "buyer",
              "type": "address"
            },
            {
              "internalType": "address payable",
              "name": "seller",
              "type": "address"
            },
            {
              "internalType": "uint256",
              "name": "amount",
              "type": "uint256"
            },
            {
              "internalType": "uint256",
              "name": "fee",
              "type": "uint256"
            },
            {
              "internalType": "uint256",
              "name": "createdAt",
              "type": "uint256"
            },
            {
              "internalType": "uint256",
              "name": "expireAt",
              "type": "uint256"
            },
            {
              "internalType": "uint256",
              "name": "clearAt",
              "type": "uint256"
            },
            {
              "internalType": "enum EscrowHub.EscrowState",
              "name": "state",
              "type": "uint8"
            }
          ],
          "internalType": "struct EscrowHub.Escrow[]",
          "name": "",
          "type": "tuple[]"
        }
      ],
      "stateMutability": "view",
      "type": "function"
    },
    {
      "inputs": [],
      "name": "initialize",
      "outputs": [],
      "stateMutability": "nonpayable",
      "type": "function"
    },
    {
      "inputs": [
        {
          "internalType": "address",
          "name": "_seller",
          "type": "address"
        },
        {
          "internalType": "string",
          "name": "_cid",
          "type": "string"
        },
        {
          "internalType": "uint256",
          "name": "expireIn",
          "type": "uint256"
        }
      ],
      "name": "newEscrow",
      "outputs": [],
      "stateMutability": "payable",
      "type": "function"
    },
    {
      "inputs": [],
      "name": "owner",
      "outputs": [
        {
          "internalType": "address",
          "name": "",
          "type": "address"
        }
      ],
      "stateMutability": "view",
      "type": "function"
    },
    {
      "inputs": [],
      "name": "proxiableUUID",
      "outputs": [
        {
          "internalType": "bytes32",
          "name": "",
          "type": "bytes32"
        }
      ],
      "stateMutability": "view",
      "type": "function"
    },
    {
      "inputs": [
        {
          "internalType": "uint256",
          "name": "_escrowId",
          "type": "uint256"
        }
      ],
      "name": "refund",
      "outputs": [],
      "stateMutability": "nonpayable",
      "type": "function"
    },
    {
      "inputs": [],
      "name": "renounceOwnership",
      "outputs": [],
      "stateMutability": "nonpayable",
      "type": "function"
    },
    {
      "inputs": [
        {
          "internalType": "address",
          "name": "newOwner",
          "type": "address"
        }
      ],
      "name": "transferOwnership",
      "outputs": [],
      "stateMutability": "nonpayable",
      "type": "function"
    },
    {
      "inputs": [
        {
          "internalType": "address",
          "name": "newImplementation",
          "type": "address"
        }
      ],
      "name": "upgradeTo",
      "outputs": [],
      "stateMutability": "nonpayable",
      "type": "function"
    },
    {
      "inputs": [
        {
          "internalType": "address",
          "name": "newImplementation",
          "type": "address"
        },
        {
          "internalType": "bytes",
          "name": "data",
          "type": "bytes"
        }
      ],
      "name": "upgradeToAndCall",
      "outputs": [],
      "stateMutability": "payable",
      "type": "function"
    }
  ],
  "bytecode": "0x60a06040523073ffffffffffffffffffffffffffffffffffffffff1660809073ffffffffffffffffffffffffffffffffffffffff1660601b8152503480156200004757600080fd5b50620000586200005e60201b60201c565b62000209565b600060019054906101000a900460ff1615620000b1576040517f08c379a0000000000000000000000000000000000000000000000000000000008152600401620000a8906200015d565b60405180910390fd5b60ff801660008054906101000a900460ff1660ff161015620001235760ff6000806101000a81548160ff021916908360ff1602179055507f7f26b83ff96e1f2b6a682f133852f6798a09c465da95921460cefb384740249860ff6040516200011a91906200017f565b60405180910390a15b565b6000620001346027836200019c565b91506200014182620001ba565b604082019050919050565b6200015781620001ad565b82525050565b60006020820190508181036000830152620001788162000125565b9050919050565b60006020820190506200019660008301846200014c565b92915050565b600082825260208201905092915050565b600060ff82169050919050565b7f496e697469616c697a61626c653a20636f6e747261637420697320696e69746960008201527f616c697a696e6700000000000000000000000000000000000000000000000000602082015250565b60805160601c614ef56200024460003960008181610e8001528181610f0f0152818161145c015281816114eb015261159b0152614ef56000f3fe6080604052600436106100dd5760003560e01c8063715018a61161007f5780639b0731af116100595780639b0731af14610244578063d0f81cbf1461026d578063ede6d084146102aa578063f2fde38b146102ea576100dd565b8063715018a6146101eb5780638129fc1c146102025780638da5cb5b14610219576100dd565b80633bd5d173116100bb5780633bd5d1731461015f5780634f1ef2861461018857806352d1902d146101a45780636fbac0fa146101cf576100dd565b8063261582b9146100e2578063278ecde11461010d5780633659cfe614610136575b600080fd5b3480156100ee57600080fd5b506100f7610313565b6040516101049190613fce565b60405180910390f35b34801561011957600080fd5b50610134600480360381019061012f9190613885565b610a58565b005b34801561014257600080fd5b5061015d60048036038101906101589190613778565b610e7e565b005b34801561016b57600080fd5b5061018660048036038101906101819190613885565b61102d565b005b6101a2600480360381019061019d91906137a1565b61145a565b005b3480156101b057600080fd5b506101b9611597565b6040516101c6919061403c565b60405180910390f35b6101e960048036038101906101e491906137f5565b611650565b005b3480156101f757600080fd5b50610200611b7f565b005b34801561020e57600080fd5b50610217611b93565b005b34801561022557600080fd5b5061022e611ce1565b60405161023b9190613fb3565b60405180910390f35b34801561025057600080fd5b5061026b60048036038101906102669190613885565b611d0b565b005b34801561027957600080fd5b50610294600480360381019061028f9190613885565b612191565b6040516102a191906143ba565b60405180910390f35b3480156102b657600080fd5b506102d160048036038101906102cc91906138ae565b6123c0565b6040516102e19493929190613ff0565b60405180910390f35b3480156102f657600080fd5b50610311600480360381019061030c9190613778565b612c66565b005b60603373ffffffffffffffffffffffffffffffffffffffff16610334611ce1565b73ffffffffffffffffffffffffffffffffffffffff16141561067557600061035c60fb612cea565b905060008167ffffffffffffffff8111156103a0577f4e487b7100000000000000000000000000000000000000000000000000000000600052604160045260246000fd5b6040519080825280602002602001820160405280156103d957816020015b6103c661350f565b8152602001906001900390816103be5790505b50905060005b8281101561066a5760fc60006001836103f891906144f4565b8152602001908152602001600020604051806101400160405290816000820154815260200160018201805461042c90614729565b80601f016020809104026020016040519081016040528092919081815260200182805461045890614729565b80156104a55780601f1061047a576101008083540402835291602001916104a5565b820191906000526020600020905b81548152906001019060200180831161048857829003601f168201915b505050505081526020016002820160009054906101000a900473ffffffffffffffffffffffffffffffffffffffff1673ffffffffffffffffffffffffffffffffffffffff1673ffffffffffffffffffffffffffffffffffffffff1681526020016003820160009054906101000a900473ffffffffffffffffffffffffffffffffffffffff1673ffffffffffffffffffffffffffffffffffffffff1673ffffffffffffffffffffffffffffffffffffffff16815260200160048201548152602001600582015481526020016006820154815260200160078201548152602001600882015481526020016009820160009054906101000a900460ff1660038111156105d7577f4e487b7100000000000000000000000000000000000000000000000000000000600052602160045260246000fd5b600381111561060f577f4e487b7100000000000000000000000000000000000000000000000000000000600052602160045260246000fd5b8152505082828151811061064c577f4e487b7100000000000000000000000000000000000000000000000000000000600052603260045260246000fd5b602002602001018190525080806106629061478c565b9150506103df565b508092505050610a55565b600060fd60003373ffffffffffffffffffffffffffffffffffffffff1673ffffffffffffffffffffffffffffffffffffffff1681526020019081526020016000205467ffffffffffffffff8111156106f6577f4e487b7100000000000000000000000000000000000000000000000000000000600052604160045260246000fd5b60405190808252806020026020018201604052801561072f57816020015b61071c61350f565b8152602001906001900390816107145790505b50905060005b60fd60003373ffffffffffffffffffffffffffffffffffffffff1673ffffffffffffffffffffffffffffffffffffffff16815260200190815260200160002054811015610a4f5760fc600060fe60003373ffffffffffffffffffffffffffffffffffffffff1673ffffffffffffffffffffffffffffffffffffffff16815260200190815260200160002060006001856107ce91906144f4565b8152602001908152602001600020548152602001908152602001600020604051806101400160405290816000820154815260200160018201805461081190614729565b80601f016020809104026020016040519081016040528092919081815260200182805461083d90614729565b801561088a5780601f1061085f5761010080835404028352916020019161088a565b820191906000526020600020905b81548152906001019060200180831161086d57829003601f168201915b505050505081526020016002820160009054906101000a900473ffffffffffffffffffffffffffffffffffffffff1673ffffffffffffffffffffffffffffffffffffffff1673ffffffffffffffffffffffffffffffffffffffff1681526020016003820160009054906101000a900473ffffffffffffffffffffffffffffffffffffffff1673ffffffffffffffffffffffffffffffffffffffff1673ffffffffffffffffffffffffffffffffffffffff16815260200160048201548152602001600582015481526020016006820154815260200160078201548152602001600882015481526020016009820160009054906101000a900460ff1660038111156109bc577f4e487b7100000000000000000000000000000000000000000000000000000000600052602160045260246000fd5b60038111156109f4577f4e487b7100000000000000000000000000000000000000000000000000000000600052602160045260246000fd5b81525050828281518110610a31577f4e487b7100000000000000000000000000000000000000000000000000000000600052603260045260246000fd5b60200260200101819052508080610a479061478c565b915050610735565b50809150505b90565b803373ffffffffffffffffffffffffffffffffffffffff1660fc600083815260200190815260200160002060030160009054906101000a900473ffffffffffffffffffffffffffffffffffffffff1673ffffffffffffffffffffffffffffffffffffffff161480610afb57503373ffffffffffffffffffffffffffffffffffffffff16610ae3611ce1565b73ffffffffffffffffffffffffffffffffffffffff16145b610b3a576040517f08c379a0000000000000000000000000000000000000000000000000000000008152600401610b319061419a565b60405180910390fd5b610b42612cf8565b60006003811115610b7c577f4e487b7100000000000000000000000000000000000000000000000000000000600052602160045260246000fd5b60fc600084815260200190815260200160002060090160009054906101000a900460ff166003811115610bd8577f4e487b7100000000000000000000000000000000000000000000000000000000600052602160045260246000fd5b14610c18576040517f08c379a0000000000000000000000000000000000000000000000000000000008152600401610c0f906141ba565b60405180910390fd5b60fc600083815260200190815260200160002060020160009054906101000a900473ffffffffffffffffffffffffffffffffffffffff1673ffffffffffffffffffffffffffffffffffffffff166108fc60fc60008581526020019081526020016000206005015460fc600086815260200190815260200160002060040154610ca091906144f4565b9081150290604051600060405180830381858888f19350505050158015610ccb573d6000803e3d6000fd5b504260fc600084815260200190815260200160002060080181905550600360fc600084815260200190815260200160002060090160006101000a81548160ff02191690836003811115610d47577f4e487b7100000000000000000000000000000000000000000000000000000000600052602160045260246000fd5b0217905550600380811115610d85577f4e487b7100000000000000000000000000000000000000000000000000000000600052602160045260246000fd5b827facfcb6d1fa91c83112102ce242b5502826bbc1a8114bc5030f4b4bd844dc3e6760fc600086815260200190815260200160002060010160fc600087815260200190815260200160002060020160009054906101000a900473ffffffffffffffffffffffffffffffffffffffff1660fc600088815260200190815260200160002060030160009054906101000a900473ffffffffffffffffffffffffffffffffffffffff1660fc60008981526020019081526020016000206004015460fc60008a815260200190815260200160002060050154604051610e6a9594939291906140e0565b60405180910390a3610e7a612d48565b5050565b7f000000000000000000000000000000000000000000000000000000000000000073ffffffffffffffffffffffffffffffffffffffff163073ffffffffffffffffffffffffffffffffffffffff161415610f0d576040517f08c379a0000000000000000000000000000000000000000000000000000000008152600401610f049061415a565b60405180910390fd5b7f000000000000000000000000000000000000000000000000000000000000000073ffffffffffffffffffffffffffffffffffffffff16610f4c612d51565b73ffffffffffffffffffffffffffffffffffffffff1614610fa2576040517f08c379a0000000000000000000000000000000000000000000000000000000008152600401610f999061417a565b60405180910390fd5b610fab81612da8565b61102a81600067ffffffffffffffff811115610ff0577f4e487b7100000000000000000000000000000000000000000000000000000000600052604160045260246000fd5b6040519080825280601f01601f1916602001820160405280156110225781602001600182028036833780820191505090505b506000612db3565b50565b803373ffffffffffffffffffffffffffffffffffffffff1660fc600083815260200190815260200160002060020160009054906101000a900473ffffffffffffffffffffffffffffffffffffffff1673ffffffffffffffffffffffffffffffffffffffff16146110d2576040517f08c379a00000000000000000000000000000000000000000000000000000000081526004016110c9906141da565b60405180910390fd5b6110da612cf8565b60006003811115611114577f4e487b7100000000000000000000000000000000000000000000000000000000600052602160045260246000fd5b60fc600084815260200190815260200160002060090160009054906101000a900460ff166003811115611170577f4e487b7100000000000000000000000000000000000000000000000000000000600052602160045260246000fd5b146111b0576040517f08c379a00000000000000000000000000000000000000000000000000000000081526004016111a7906142ba565b60405180910390fd5b60fc600083815260200190815260200160002060030160009054906101000a900473ffffffffffffffffffffffffffffffffffffffff1673ffffffffffffffffffffffffffffffffffffffff166108fc60fc6000858152602001908152602001600020600401549081150290604051600060405180830381858888f19350505050158015611242573d6000803e3d6000fd5b5061124b611ce1565b73ffffffffffffffffffffffffffffffffffffffff166108fc60fc6000858152602001908152602001600020600501549081150290604051600060405180830381858888f193505050501580156112a6573d6000803e3d6000fd5b504260fc600084815260200190815260200160002060080181905550600160fc600084815260200190815260200160002060090160006101000a81548160ff02191690836003811115611322577f4e487b7100000000000000000000000000000000000000000000000000000000600052602160045260246000fd5b021790555060016003811115611361577f4e487b7100000000000000000000000000000000000000000000000000000000600052602160045260246000fd5b827facfcb6d1fa91c83112102ce242b5502826bbc1a8114bc5030f4b4bd844dc3e6760fc600086815260200190815260200160002060010160fc600087815260200190815260200160002060020160009054906101000a900473ffffffffffffffffffffffffffffffffffffffff1660fc600088815260200190815260200160002060030160009054906101000a900473ffffffffffffffffffffffffffffffffffffffff1660fc60008981526020019081526020016000206004015460fc60008a8152602001908152602001600020600501546040516114469594939291906140e0565b60405180910390a3611456612d48565b5050565b7f000000000000000000000000000000000000000000000000000000000000000073ffffffffffffffffffffffffffffffffffffffff163073ffffffffffffffffffffffffffffffffffffffff1614156114e9576040517f08c379a00000000000000000000000000000000000000000000000000000000081526004016114e09061415a565b60405180910390fd5b7f000000000000000000000000000000000000000000000000000000000000000073ffffffffffffffffffffffffffffffffffffffff16611528612d51565b73ffffffffffffffffffffffffffffffffffffffff161461157e576040517f08c379a00000000000000000000000000000000000000000000000000000000081526004016115759061417a565b60405180910390fd5b61158782612da8565b61159382826001612db3565b5050565b60007f000000000000000000000000000000000000000000000000000000000000000073ffffffffffffffffffffffffffffffffffffffff163073ffffffffffffffffffffffffffffffffffffffff1614611627576040517f08c379a000000000000000000000000000000000000000000000000000000000815260040161161e906141fa565b60405180910390fd5b7f360894a13ba1a3210667c828492db98dca3e2076cc3735a920a3ca505d382bbc60001b905090565b611658612cf8565b61166260fb612f30565b600061166e60fb612cea565b905066038d7ea4c680003410156116ba576040517f08c379a00000000000000000000000000000000000000000000000000000000081526004016116b19061431a565b60405180910390fd5b600060646005346116cb919061457b565b6116d5919061454a565b9050600081346116e591906145d5565b90506040518061014001604052808481526020018681526020013373ffffffffffffffffffffffffffffffffffffffff1681526020018773ffffffffffffffffffffffffffffffffffffffff1681526020018281526020018381526020014281526020018581526020016000815260200160006003811115611790577f4e487b7100000000000000000000000000000000000000000000000000000000600052602160045260246000fd5b81525060fc60008581526020019081526020016000206000820151816000015560208201518160010190805190602001906117cc9291906135c6565b5060408201518160020160006101000a81548173ffffffffffffffffffffffffffffffffffffffff021916908373ffffffffffffffffffffffffffffffffffffffff16021790555060608201518160030160006101000a81548173ffffffffffffffffffffffffffffffffffffffff021916908373ffffffffffffffffffffffffffffffffffffffff1602179055506080820151816004015560a0820151816005015560c0820151816006015560e0820151816007015561010082015181600801556101208201518160090160006101000a81548160ff021916908360038111156118e0577f4e487b7100000000000000000000000000000000000000000000000000000000600052602160045260246000fd5b0217905550905050600160fd60003373ffffffffffffffffffffffffffffffffffffffff1673ffffffffffffffffffffffffffffffffffffffff1681526020019081526020016000205461193491906144f4565b60fd60003373ffffffffffffffffffffffffffffffffffffffff1673ffffffffffffffffffffffffffffffffffffffff168152602001908152602001600020819055508260fe60003373ffffffffffffffffffffffffffffffffffffffff1673ffffffffffffffffffffffffffffffffffffffff168152602001908152602001600020600060fd60003373ffffffffffffffffffffffffffffffffffffffff1673ffffffffffffffffffffffffffffffffffffffff16815260200190815260200160002054815260200190815260200160002081905550600160fd60008873ffffffffffffffffffffffffffffffffffffffff1673ffffffffffffffffffffffffffffffffffffffff16815260200190815260200160002054611a5791906144f4565b60fd60008873ffffffffffffffffffffffffffffffffffffffff1673ffffffffffffffffffffffffffffffffffffffff168152602001908152602001600020819055508260fe60008873ffffffffffffffffffffffffffffffffffffffff1673ffffffffffffffffffffffffffffffffffffffff168152602001908152602001600020600060fd60008a73ffffffffffffffffffffffffffffffffffffffff1673ffffffffffffffffffffffffffffffffffffffff168152602001908152602001600020548152602001908152602001600020819055508181847fb9e71d1f685b313accb4809b03f62dc9601718815d3758ed626f3802e7f005b188338b6000604051611b679493929190614094565b60405180910390a4505050611b7a612d48565b505050565b611b87612f46565b611b916000612fc4565b565b60008060019054906101000a900460ff16159050808015611bc45750600160008054906101000a900460ff1660ff16105b80611bf15750611bd33061308a565b158015611bf05750600160008054906101000a900460ff1660ff16145b5b611c30576040517f08c379a0000000000000000000000000000000000000000000000000000000008152600401611c279061423a565b60405180910390fd5b60016000806101000a81548160ff021916908360ff1602179055508015611c6d576001600060016101000a81548160ff0219169083151502179055505b611c756130ad565b611c7d613106565b611c8561315f565b8015611cde5760008060016101000a81548160ff0219169083151502179055507f7f26b83ff96e1f2b6a682f133852f6798a09c465da95921460cefb38474024986001604051611cd59190614057565b60405180910390a15b50565b6000606560009054906101000a900473ffffffffffffffffffffffffffffffffffffffff16905090565b803373ffffffffffffffffffffffffffffffffffffffff1660fc600083815260200190815260200160002060030160009054906101000a900473ffffffffffffffffffffffffffffffffffffffff1673ffffffffffffffffffffffffffffffffffffffff1614611db0576040517f08c379a0000000000000000000000000000000000000000000000000000000008152600401611da79061435a565b60405180910390fd5b611db8612cf8565b4260fc6000848152602001908152602001600020600701541115611e11576040517f08c379a0000000000000000000000000000000000000000000000000000000008152600401611e089061427a565b60405180910390fd5b60006003811115611e4b577f4e487b7100000000000000000000000000000000000000000000000000000000600052602160045260246000fd5b60fc600084815260200190815260200160002060090160009054906101000a900460ff166003811115611ea7577f4e487b7100000000000000000000000000000000000000000000000000000000600052602160045260246000fd5b14611ee7576040517f08c379a0000000000000000000000000000000000000000000000000000000008152600401611ede906142fa565b60405180910390fd5b60fc600083815260200190815260200160002060030160009054906101000a900473ffffffffffffffffffffffffffffffffffffffff1673ffffffffffffffffffffffffffffffffffffffff166108fc60fc6000858152602001908152602001600020600401549081150290604051600060405180830381858888f19350505050158015611f79573d6000803e3d6000fd5b50611f82611ce1565b73ffffffffffffffffffffffffffffffffffffffff166108fc60fc6000858152602001908152602001600020600501549081150290604051600060405180830381858888f19350505050158015611fdd573d6000803e3d6000fd5b504260fc600084815260200190815260200160002060080181905550600260fc600084815260200190815260200160002060090160006101000a81548160ff02191690836003811115612059577f4e487b7100000000000000000000000000000000000000000000000000000000600052602160045260246000fd5b021790555060026003811115612098577f4e487b7100000000000000000000000000000000000000000000000000000000600052602160045260246000fd5b827facfcb6d1fa91c83112102ce242b5502826bbc1a8114bc5030f4b4bd844dc3e6760fc600086815260200190815260200160002060010160fc600087815260200190815260200160002060020160009054906101000a900473ffffffffffffffffffffffffffffffffffffffff1660fc600088815260200190815260200160002060030160009054906101000a900473ffffffffffffffffffffffffffffffffffffffff1660fc60008981526020019081526020016000206004015460fc60008a81526020019081526020016000206005015460405161217d9594939291906140e0565b60405180910390a361218d612d48565b5050565b61219961350f565b60fc600083815260200190815260200160002060405180610140016040529081600082015481526020016001820180546121d290614729565b80601f01602080910402602001604051908101604052809291908181526020018280546121fe90614729565b801561224b5780601f106122205761010080835404028352916020019161224b565b820191906000526020600020905b81548152906001019060200180831161222e57829003601f168201915b505050505081526020016002820160009054906101000a900473ffffffffffffffffffffffffffffffffffffffff1673ffffffffffffffffffffffffffffffffffffffff1673ffffffffffffffffffffffffffffffffffffffff1681526020016003820160009054906101000a900473ffffffffffffffffffffffffffffffffffffffff1673ffffffffffffffffffffffffffffffffffffffff1673ffffffffffffffffffffffffffffffffffffffff16815260200160048201548152602001600582015481526020016006820154815260200160078201548152602001600882015481526020016009820160009054906101000a900460ff16600381111561237d577f4e487b7100000000000000000000000000000000000000000000000000000000600052602160045260246000fd5b60038111156123b5577f4e487b7100000000000000000000000000000000000000000000000000000000600052602160045260246000fd5b815250509050919050565b60606000806000808590503373ffffffffffffffffffffffffffffffffffffffff166123ea611ce1565b73ffffffffffffffffffffffffffffffffffffffff16141561279557600061241260fb612cea565b9050600060019050888261242691906145d5565b83111561244457888261243991906145d5565b92506000905061245d565b888261245091906145d5565b83141561245c57600090505b5b60008367ffffffffffffffff81111561249f577f4e487b7100000000000000000000000000000000000000000000000000000000600052604160045260246000fd5b6040519080825280602002602001820160405280156124d857816020015b6124c561350f565b8152602001906001900390816124bd5790505b50905060005b848110156127745760fc60006001838e6124f891906144f4565b61250291906144f4565b8152602001908152602001600020604051806101400160405290816000820154815260200160018201805461253690614729565b80601f016020809104026020016040519081016040528092919081815260200182805461256290614729565b80156125af5780601f10612584576101008083540402835291602001916125af565b820191906000526020600020905b81548152906001019060200180831161259257829003601f168201915b505050505081526020016002820160009054906101000a900473ffffffffffffffffffffffffffffffffffffffff1673ffffffffffffffffffffffffffffffffffffffff1673ffffffffffffffffffffffffffffffffffffffff1681526020016003820160009054906101000a900473ffffffffffffffffffffffffffffffffffffffff1673ffffffffffffffffffffffffffffffffffffffff1673ffffffffffffffffffffffffffffffffffffffff16815260200160048201548152602001600582015481526020016006820154815260200160078201548152602001600882015481526020016009820160009054906101000a900460ff1660038111156126e1577f4e487b7100000000000000000000000000000000000000000000000000000000600052602160045260246000fd5b6003811115612719577f4e487b7100000000000000000000000000000000000000000000000000000000600052602160045260246000fd5b81525050828281518110612756577f4e487b7100000000000000000000000000000000000000000000000000000000600052603260045260246000fd5b6020026020010181905250808061276c9061478c565b9150506124de565b50808383868d61278491906144f4565b975097509750975050505050612c5d565b6000600190508760fd60003373ffffffffffffffffffffffffffffffffffffffff1673ffffffffffffffffffffffffffffffffffffffff168152602001908152602001600020546127e691906145d5565b821115612843578760fd60003373ffffffffffffffffffffffffffffffffffffffff1673ffffffffffffffffffffffffffffffffffffffff1681526020019081526020016000205461283891906145d5565b91506000905061289b565b8760fd60003373ffffffffffffffffffffffffffffffffffffffff1673ffffffffffffffffffffffffffffffffffffffff1681526020019081526020016000205461288e91906145d5565b82141561289a57600090505b5b60008267ffffffffffffffff8111156128dd577f4e487b7100000000000000000000000000000000000000000000000000000000600052604160045260246000fd5b60405190808252806020026020018201604052801561291657816020015b61290361350f565b8152602001906001900390816128fb5790505b50905060005b83811015612c025760fc600060fe60003373ffffffffffffffffffffffffffffffffffffffff1673ffffffffffffffffffffffffffffffffffffffff16815260200190815260200160002060006001858f61297791906144f4565b61298191906144f4565b815260200190815260200160002054815260200190815260200160002060405180610140016040529081600082015481526020016001820180546129c490614729565b80601f01602080910402602001604051908101604052809291908181526020018280546129f090614729565b8015612a3d5780601f10612a1257610100808354040283529160200191612a3d565b820191906000526020600020905b815481529060010190602001808311612a2057829003601f168201915b505050505081526020016002820160009054906101000a900473ffffffffffffffffffffffffffffffffffffffff1673ffffffffffffffffffffffffffffffffffffffff1673ffffffffffffffffffffffffffffffffffffffff1681526020016003820160009054906101000a900473ffffffffffffffffffffffffffffffffffffffff1673ffffffffffffffffffffffffffffffffffffffff1673ffffffffffffffffffffffffffffffffffffffff16815260200160048201548152602001600582015481526020016006820154815260200160078201548152602001600882015481526020016009820160009054906101000a900460ff166003811115612b6f577f4e487b7100000000000000000000000000000000000000000000000000000000600052602160045260246000fd5b6003811115612ba7577f4e487b7100000000000000000000000000000000000000000000000000000000600052602160045260246000fd5b81525050828281518110612be4577f4e487b7100000000000000000000000000000000000000000000000000000000600052603260045260246000fd5b60200260200101819052508080612bfa9061478c565b91505061291c565b508060fd60003373ffffffffffffffffffffffffffffffffffffffff1673ffffffffffffffffffffffffffffffffffffffff1681526020019081526020016000205483858c612c5191906144f4565b96509650965096505050505b92959194509250565b612c6e612f46565b600073ffffffffffffffffffffffffffffffffffffffff168173ffffffffffffffffffffffffffffffffffffffff161415612cde576040517f08c379a0000000000000000000000000000000000000000000000000000000008152600401612cd59061413a565b60405180910390fd5b612ce781612fc4565b50565b600081600001549050919050565b60026001541415612d3e576040517f08c379a0000000000000000000000000000000000000000000000000000000008152600401612d359061439a565b60405180910390fd5b6002600181905550565b60018081905550565b6000612d7f7f360894a13ba1a3210667c828492db98dca3e2076cc3735a920a3ca505d382bbc60001b6131b0565b60000160009054906101000a900473ffffffffffffffffffffffffffffffffffffffff16905090565b612db0612f46565b50565b612ddf7f4910fdfa16fed3260ed0e7147f7cc6da11a60208b5b9406d12a635614ffd914360001b6131ba565b60000160009054906101000a900460ff1615612e0357612dfe836131c4565b612f2b565b8273ffffffffffffffffffffffffffffffffffffffff166352d1902d6040518163ffffffff1660e01b815260040160206040518083038186803b158015612e4957600080fd5b505afa925050508015612e7a57506040513d601f19601f82011682018060405250810190612e77919061385c565b60015b612eb9576040517f08c379a0000000000000000000000000000000000000000000000000000000008152600401612eb09061425a565b60405180910390fd5b7f360894a13ba1a3210667c828492db98dca3e2076cc3735a920a3ca505d382bbc60001b8114612f1e576040517f08c379a0000000000000000000000000000000000000000000000000000000008152600401612f159061421a565b60405180910390fd5b50612f2a83838361327d565b5b505050565b6001816000016000828254019250508190555050565b612f4e6132a9565b73ffffffffffffffffffffffffffffffffffffffff16612f6c611ce1565b73ffffffffffffffffffffffffffffffffffffffff1614612fc2576040517f08c379a0000000000000000000000000000000000000000000000000000000008152600401612fb9906142da565b60405180910390fd5b565b6000606560009054906101000a900473ffffffffffffffffffffffffffffffffffffffff16905081606560006101000a81548173ffffffffffffffffffffffffffffffffffffffff021916908373ffffffffffffffffffffffffffffffffffffffff1602179055508173ffffffffffffffffffffffffffffffffffffffff168173ffffffffffffffffffffffffffffffffffffffff167f8be0079c531659141344cd1fd0a4f28419497f9722a3daafe3b4186f6b6457e060405160405180910390a35050565b6000808273ffffffffffffffffffffffffffffffffffffffff163b119050919050565b600060019054906101000a900460ff166130fc576040517f08c379a00000000000000000000000000000000000000000000000000000000081526004016130f39061437a565b60405180910390fd5b6131046132b1565b565b600060019054906101000a900460ff16613155576040517f08c379a000000000000000000000000000000000000000000000000000000000815260040161314c9061437a565b60405180910390fd5b61315d613309565b565b600060019054906101000a900460ff166131ae576040517f08c379a00000000000000000000000000000000000000000000000000000000081526004016131a59061437a565b60405180910390fd5b565b6000819050919050565b6000819050919050565b6131cd8161308a565b61320c576040517f08c379a00000000000000000000000000000000000000000000000000000000081526004016132039061429a565b60405180910390fd5b806132397f360894a13ba1a3210667c828492db98dca3e2076cc3735a920a3ca505d382bbc60001b6131b0565b60000160006101000a81548173ffffffffffffffffffffffffffffffffffffffff021916908373ffffffffffffffffffffffffffffffffffffffff16021790555050565b6132868361336a565b6000825111806132935750805b156132a4576132a283836133b9565b505b505050565b600033905090565b600060019054906101000a900460ff16613300576040517f08c379a00000000000000000000000000000000000000000000000000000000081526004016132f79061437a565b60405180910390fd5b60018081905550565b600060019054906101000a900460ff16613358576040517f08c379a000000000000000000000000000000000000000000000000000000000815260040161334f9061437a565b60405180910390fd5b6133686133636132a9565b612fc4565b565b613373816131c4565b8073ffffffffffffffffffffffffffffffffffffffff167fbc7cd75a20ee27fd9adebab32041f755214dbc6bffa90cc0225b39da2e5c2d3b60405160405180910390a250565b60606133c48361308a565b613403576040517f08c379a00000000000000000000000000000000000000000000000000000000081526004016133fa9061433a565b60405180910390fd5b6000808473ffffffffffffffffffffffffffffffffffffffff168460405161342b9190613f9c565b600060405180830381855af49150503d8060008114613466576040519150601f19603f3d011682016040523d82523d6000602084013e61346b565b606091505b50915091506134938282604051806060016040528060278152602001614e996027913961349d565b9250505092915050565b606083156134ad578290506134b8565b6134b783836134bf565b5b9392505050565b6000825111156134d25781518083602001fd5b806040517f08c379a00000000000000000000000000000000000000000000000000000000081526004016135069190614072565b60405180910390fd5b6040518061014001604052806000815260200160608152602001600073ffffffffffffffffffffffffffffffffffffffff168152602001600073ffffffffffffffffffffffffffffffffffffffff1681526020016000815260200160008152602001600081526020016000815260200160008152602001600060038111156135c0577f4e487b7100000000000000000000000000000000000000000000000000000000600052602160045260246000fd5b81525090565b8280546135d290614729565b90600052602060002090601f0160209004810192826135f4576000855561363b565b82601f1061360d57805160ff191683800117855561363b565b8280016001018555821561363b579182015b8281111561363a57825182559160200191906001019061361f565b5b509050613648919061364c565b5090565b5b8082111561366557600081600090555060010161364d565b5090565b600061367c61367784614401565b6143dc565b90508281526020810184848401111561369457600080fd5b61369f8482856146e7565b509392505050565b60006136ba6136b584614432565b6143dc565b9050828152602081018484840111156136d257600080fd5b6136dd8482856146e7565b509392505050565b6000813590506136f481614e53565b92915050565b60008151905061370981614e6a565b92915050565b600082601f83011261372057600080fd5b8135613730848260208601613669565b91505092915050565b600082601f83011261374a57600080fd5b813561375a8482602086016136a7565b91505092915050565b60008135905061377281614e81565b92915050565b60006020828403121561378a57600080fd5b6000613798848285016136e5565b91505092915050565b600080604083850312156137b457600080fd5b60006137c2858286016136e5565b925050602083013567ffffffffffffffff8111156137df57600080fd5b6137eb8582860161370f565b9150509250929050565b60008060006060848603121561380a57600080fd5b6000613818868287016136e5565b935050602084013567ffffffffffffffff81111561383557600080fd5b61384186828701613739565b925050604061385286828701613763565b9150509250925092565b60006020828403121561386e57600080fd5b600061387c848285016136fa565b91505092915050565b60006020828403121561389757600080fd5b60006138a584828501613763565b91505092915050565b600080604083850312156138c157600080fd5b60006138cf85828601613763565b92505060206138e085828601613763565b9150509250929050565b60006138f68383613dca565b905092915050565b6139078161468d565b82525050565b6139168161461b565b82525050565b61392581614609565b82525050565b600061393682614488565b61394081856144b6565b93508360208202850161395285614463565b8060005b8581101561398e578484038952815161396f85826138ea565b945061397a836144a9565b925060208a01995050600181019050613956565b50829750879550505050505092915050565b6139a98161462d565b82525050565b6139b881614639565b82525050565b60006139c982614493565b6139d381856144c7565b93506139e38185602086016146f6565b80840191505092915050565b6139f88161469f565b82525050565b613a078161469f565b82525050565b613a16816146b1565b82525050565b6000613a278261449e565b613a3181856144d2565b9350613a418185602086016146f6565b613a4a816148c0565b840191505092915050565b6000613a608261449e565b613a6a81856144e3565b9350613a7a8185602086016146f6565b613a83816148c0565b840191505092915050565b60008154613a9b81614729565b613aa581866144e3565b94506001821660008114613ac05760018114613ad257613b05565b60ff1983168652602086019350613b05565b613adb85614473565b60005b83811015613afd57815481890152600182019150602081019050613ade565b808801955050505b50505092915050565b6000613b1b6026836144e3565b9150613b26826148d1565b604082019050919050565b6000613b3e602c836144e3565b9150613b4982614920565b604082019050919050565b6000613b61602c836144e3565b9150613b6c8261496f565b604082019050919050565b6000613b84602c836144e3565b9150613b8f826149be565b604082019050919050565b6000613ba76030836144e3565b9150613bb282614a0d565b604082019050919050565b6000613bca6015836144e3565b9150613bd582614a5c565b602082019050919050565b6000613bed6038836144e3565b9150613bf882614a85565b604082019050919050565b6000613c106029836144e3565b9150613c1b82614ad4565b604082019050919050565b6000613c33602e836144e3565b9150613c3e82614b23565b604082019050919050565b6000613c56602e836144e3565b9150613c6182614b72565b604082019050919050565b6000613c796018836144e3565b9150613c8482614bc1565b602082019050919050565b6000613c9c602d836144e3565b9150613ca782614bea565b604082019050919050565b6000613cbf6035836144e3565b9150613cca82614c39565b604082019050919050565b6000613ce26020836144e3565b9150613ced82614c88565b602082019050919050565b6000613d056033836144e3565b9150613d1082614cb1565b604082019050919050565b6000613d286029836144e3565b9150613d3382614d00565b604082019050919050565b6000613d4b6026836144e3565b9150613d5682614d4f565b604082019050919050565b6000613d6e6016836144e3565b9150613d7982614d9e565b602082019050919050565b6000613d91602b836144e3565b9150613d9c82614dc7565b604082019050919050565b6000613db4601f836144e3565b9150613dbf82614e16565b602082019050919050565b600061014083016000830151613de36000860182613f7e565b5060208301518482036020860152613dfb8282613a1c565b9150506040830151613e10604086018261390d565b506060830151613e23606086018261390d565b506080830151613e366080860182613f7e565b5060a0830151613e4960a0860182613f7e565b5060c0830151613e5c60c0860182613f7e565b5060e0830151613e6f60e0860182613f7e565b50610100830151613e84610100860182613f7e565b50610120830151613e996101208601826139ef565b508091505092915050565b600061014083016000830151613ebd6000860182613f7e565b5060208301518482036020860152613ed58282613a1c565b9150506040830151613eea604086018261390d565b506060830151613efd606086018261390d565b506080830151613f106080860182613f7e565b5060a0830151613f2360a0860182613f7e565b5060c0830151613f3660c0860182613f7e565b5060e0830151613f4960e0860182613f7e565b50610100830151613f5e610100860182613f7e565b50610120830151613f736101208601826139ef565b508091505092915050565b613f8781614676565b82525050565b613f9681614676565b82525050565b6000613fa882846139be565b915081905092915050565b6000602082019050613fc8600083018461391c565b92915050565b60006020820190508181036000830152613fe8818461392b565b905092915050565b6000608082019050818103600083015261400a818761392b565b90506140196020830186613f8d565b61402660408301856139a0565b6140336060830184613f8d565b95945050505050565b600060208201905061405160008301846139af565b92915050565b600060208201905061406c6000830184613a0d565b92915050565b6000602082019050818103600083015261408c8184613a55565b905092915050565b600060808201905081810360008301526140ae8187613a55565b90506140bd602083018661391c565b6140ca604083018561391c565b6140d760608301846139fe565b95945050505050565b600060a08201905081810360008301526140fa8188613a8e565b905061410960208301876138fe565b61411660408301866138fe565b6141236060830185613f8d565b6141306080830184613f8d565b9695505050505050565b6000602082019050818103600083015261415381613b0e565b9050919050565b6000602082019050818103600083015261417381613b31565b9050919050565b6000602082019050818103600083015261419381613b54565b9050919050565b600060208201905081810360008301526141b381613b77565b9050919050565b600060208201905081810360008301526141d381613b9a565b9050919050565b600060208201905081810360008301526141f381613bbd565b9050919050565b6000602082019050818103600083015261421381613be0565b9050919050565b6000602082019050818103600083015261423381613c03565b9050919050565b6000602082019050818103600083015261425381613c26565b9050919050565b6000602082019050818103600083015261427381613c49565b9050919050565b6000602082019050818103600083015261429381613c6c565b9050919050565b600060208201905081810360008301526142b381613c8f565b9050919050565b600060208201905081810360008301526142d381613cb2565b9050919050565b600060208201905081810360008301526142f381613cd5565b9050919050565b6000602082019050818103600083015261431381613cf8565b9050919050565b6000602082019050818103600083015261433381613d1b565b9050919050565b6000602082019050818103600083015261435381613d3e565b9050919050565b6000602082019050818103600083015261437381613d61565b9050919050565b6000602082019050818103600083015261439381613d84565b9050919050565b600060208201905081810360008301526143b381613da7565b9050919050565b600060208201905081810360008301526143d48184613ea4565b905092915050565b60006143e66143f7565b90506143f2828261475b565b919050565b6000604051905090565b600067ffffffffffffffff82111561441c5761441b614891565b5b614425826148c0565b9050602081019050919050565b600067ffffffffffffffff82111561444d5761444c614891565b5b614456826148c0565b9050602081019050919050565b6000819050602082019050919050565b60008190508160005260206000209050919050565b600081519050919050565b600081519050919050565b600081519050919050565b6000602082019050919050565b600082825260208201905092915050565b600081905092915050565b600082825260208201905092915050565b600082825260208201905092915050565b60006144ff82614676565b915061450a83614676565b9250827fffffffffffffffffffffffffffffffffffffffffffffffffffffffffffffffff0382111561453f5761453e6147d5565b5b828201905092915050565b600061455582614676565b915061456083614676565b9250826145705761456f614804565b5b828204905092915050565b600061458682614676565b915061459183614676565b9250817fffffffffffffffffffffffffffffffffffffffffffffffffffffffffffffffff04831182151516156145ca576145c96147d5565b5b828202905092915050565b60006145e082614676565b91506145eb83614676565b9250828210156145fe576145fd6147d5565b5b828203905092915050565b600061461482614656565b9050919050565b600061462682614656565b9050919050565b60008115159050919050565b6000819050919050565b600081905061465182614e3f565b919050565b600073ffffffffffffffffffffffffffffffffffffffff82169050919050565b6000819050919050565b600060ff82169050919050565b6000614698826146c3565b9050919050565b60006146aa82614643565b9050919050565b60006146bc82614680565b9050919050565b60006146ce826146d5565b9050919050565b60006146e082614656565b9050919050565b82818337600083830152505050565b60005b838110156147145780820151818401526020810190506146f9565b83811115614723576000848401525b50505050565b6000600282049050600182168061474157607f821691505b6020821081141561475557614754614862565b5b50919050565b614764826148c0565b810181811067ffffffffffffffff8211171561478357614782614891565b5b80604052505050565b600061479782614676565b91507fffffffffffffffffffffffffffffffffffffffffffffffffffffffffffffffff8214156147ca576147c96147d5565b5b600182019050919050565b7f4e487b7100000000000000000000000000000000000000000000000000000000600052601160045260246000fd5b7f4e487b7100000000000000000000000000000000000000000000000000000000600052601260045260246000fd5b7f4e487b7100000000000000000000000000000000000000000000000000000000600052602160045260246000fd5b7f4e487b7100000000000000000000000000000000000000000000000000000000600052602260045260246000fd5b7f4e487b7100000000000000000000000000000000000000000000000000000000600052604160045260246000fd5b6000601f19601f8301169050919050565b7f4f776e61626c653a206e6577206f776e657220697320746865207a65726f206160008201527f6464726573730000000000000000000000000000000000000000000000000000602082015250565b7f46756e6374696f6e206d7573742062652063616c6c6564207468726f7567682060008201527f64656c656761746563616c6c0000000000000000000000000000000000000000602082015250565b7f46756e6374696f6e206d7573742062652063616c6c6564207468726f7567682060008201527f6163746976652070726f78790000000000000000000000000000000000000000602082015250565b7f4f6e6c792073656c6c6572206f72204f776e65722063616e20706572666f726d60008201527f207468697320616374696f6e0000000000000000000000000000000000000000602082015250565b7f43616e277420726566756e64207468697320657363726f772e20416c7265616460008201527f792075706461746564206265666f726500000000000000000000000000000000602082015250565b7f4f6e6c792042757965722043616e204163636573730000000000000000000000600082015250565b7f555550535570677261646561626c653a206d757374206e6f742062652063616c60008201527f6c6564207468726f7567682064656c656761746563616c6c0000000000000000602082015250565b7f45524331393637557067726164653a20756e737570706f727465642070726f7860008201527f6961626c65555549440000000000000000000000000000000000000000000000602082015250565b7f496e697469616c697a61626c653a20636f6e747261637420697320616c72656160008201527f647920696e697469616c697a6564000000000000000000000000000000000000602082015250565b7f45524331393637557067726164653a206e657720696d706c656d656e7461746960008201527f6f6e206973206e6f742055555053000000000000000000000000000000000000602082015250565b7f457363726f772069736e27742065787069726564207965740000000000000000600082015250565b7f455243313936373a206e657720696d706c656d656e746174696f6e206973206e60008201527f6f74206120636f6e747261637400000000000000000000000000000000000000602082015250565b7f596f752063616e27742064656c69766572207468697320657363726f772e204160008201527f6c72656164792075706461746564206265666f72650000000000000000000000602082015250565b7f4f776e61626c653a2063616c6c6572206973206e6f7420746865206f776e6572600082015250565b7f596f752063616e277420636c61696d207468697320657363726f772e20416c7260008201527f656164792075706461746564206265666f726500000000000000000000000000602082015250565b7f457363726f77206d757374206265206c6172676572207468656e206d696e696d60008201527f756d20616d6f756e740000000000000000000000000000000000000000000000602082015250565b7f416464726573733a2064656c65676174652063616c6c20746f206e6f6e2d636f60008201527f6e74726163740000000000000000000000000000000000000000000000000000602082015250565b7f4f6e6c792053656c6c65722043616e2041636365737300000000000000000000600082015250565b7f496e697469616c697a61626c653a20636f6e7472616374206973206e6f74206960008201527f6e697469616c697a696e67000000000000000000000000000000000000000000602082015250565b7f5265656e7472616e637947756172643a207265656e7472616e742063616c6c00600082015250565b60048110614e5057614e4f614833565b5b50565b614e5c81614609565b8114614e6757600080fd5b50565b614e7381614639565b8114614e7e57600080fd5b50565b614e8a81614676565b8114614e9557600080fd5b5056fe416464726573733a206c6f772d6c6576656c2064656c65676174652063616c6c206661696c6564a26469706673582212207145ff253749cb6ebffb82161cb6f1c620eef7cb35a4f62612c0da8b9395285564736f6c63430008040033",
  "linkReferences": {},
  "deployedLinkReferences": {}
}